:020000040800F2
:1000000008040024AD02000805120008531100087E
:1000100001120008F5020008651300080000000046
:1000200000000000000000000000000009120008AD
:100030005503000800000000071200080B1200081A
:10004000C7020008C7020008C7020008C70200086C
:10005000C7020008C7020008C7020008C70200085C
:10006000C7020008C7020008C7020008C70200084C
:10007000C7020008C7020008C7020008C70200083C
:10008000C7020008C7020008C7020008C70200082C
:10009000C7020008C7020008C7020008C70200081C
:1000A000C7020008C7020008C7020008C70200080C
:1000B000C7020008C7020008C7020008C7020008FC
:1000C000C7020008C7020008C7020008C7020008EC
:1000D000C7020008C7020008C7020008C7020008DC
:1000E000C7020008C702000800000000C70200089D
:1000F000C7020008C7020008C7020008C7020008BC
:10010000C7020008C7020008C7020008C7020008AB
:10011000C7020008C7020008C7020008C70200089B
:10012000C7020008C7020008C7020008C70200088B
:10013000C7020008C7020008C7020008C70200087B
:1001400000000000000000000000000000000000AF
:10015000C7020008C7020008C7020008C70200085B
:10016000C7020008C7020008C7020008C70200084B
:10017000C7020008C7020008C7020008000000000C
:10018000C7020008C7020008C7020008C70200082B
:10019000C7020008C7020008C7020008C70200081B
:1001A000C7020008C7020008C7020008C70200080B
:1001B000C7020008C7020008C7020008C7020008FB
:1001C000C7020008C7020008C7020008C7020008EB
:1001D000C7020008C7020008C7020008C7020008DB
:1001E000C7020008C7020008C7020008C7020008CB
:1001F000C7020008C7020008C7020008C7020008BB
:10020000C7020008C7020008C7020008C7020008AA
:10021000C7020008C7020008C7020008C70200089A
:10022000C7020008C7020008C7020008000000005B
:10023000C7020008C702000800000000C70200084B
:10024000C7020008C7020008C7020008C70200086A
:10025000C7020008C7020008C7020008C70200085A
:10026000C7020008C7020008C7020008C70200084A
:10027000C7020008C7020008C7020008000000000B
:10028000C702000800000000C702000800000000CC
:1002900000000000C7020008DFF80CD000F018F8DA
:1002A00000480047891300080804002406488047D6
:1002B00006480047FEE7FEE7FEE7FEE7FEE7FEE74B
:1002C000FEE7FEE7FEE7FEE7D1120008990200080C
:1002D000064C074D06E0E06840F0010394E8070093
:1002E00098471034AC42F6D3FFF7DAFFD814000871
:1002F000F814000800BFFEE701484068704700009E
:10030000001000E02DE9F0410746002600F09CFABD
:100310000F49B0FBF1F000FB07F800BFFFF7ECFF5F
:10032000054611E0FFF7E8FF0446AC420CD0AC42B2
:1003300002D9601B064403E0C5F1FF3020440644A7
:100340002546464500D300E0ECE700BFBDE8F0815C
:1003500040420F0070470000F8B502460B460021EE
:10036000002600240020824D00BFFCE0012707FA90
:1003700001F61F6807EA0604B4427CD15F68022FC9
:1003800002D05F68122F1AD14FEAD10C02F1200778
:1003900057F82C004F074FEAD76C0F2707FA0CF7D6
:1003A000B8434FEA417C4FEADC6C1F6907FA0CF74F
:1003B00038434FEAD10C02F1200747F82C001068AF
:1003C0004FEA410C032707FA0CF7B8431F7907F0EF
:1003D00003074FEA410C07FA0CF7384310605F68D7
:1003E000012F08D05F68022F05D05F68112F02D05F
:1003F0005F68122F17D190684FEA410C032707FA64
:100400000CF7B8434FEA410CDF6807FA0CF73843A2
:100410009060506801278F40B8431F79C7F30017D9
:100420008F4038435060D0684FEA410C032707FAE9
:100430000CF7B8434FEA410C9F6807FA0CF73843B2
:10044000D0605F6807F08057B7F1805F95D100BF3B
:10045000484F3F6847F00207DFF818C1CCF800703A
:1004600067463F6807F00207009700BF00BF424F92
:100470004FEA910C00E075E057F82C008F074FEA27
:10048000177C0F2707FA0CF7B8433C4FBA4201D14B
:1004900000272DE03A4FBA4201D1012728E0394F19
:1004A000BA4201D1022723E0374FBA4201D10327D4
:1004B0001EE0364FBA4201D1042719E0344FBA4248
:1004C00001D1052714E0334FBA4201D106270FE0CE
:1004D000314FBA4201D107270AE0304FBA4201D169
:1004E000082705E02E4FBA4201D1092700E00A276C
:1004F0004FEA817C4FEA1C7C07FA0CF738431E4F09
:100500004FEA910C47F82C002868A0435F6807F475
:100510008037B7F5803F00D1204328606868A0434A
:100520005F6807F40037B7F5003F00D120436860EB
:100530004FF0B0473868A0435F6807F48017B7F5FD
:10054000801F00D120434FF0B04738607868A04347
:100550005F6807F40017B7F5001F00D120434FF084
:10056000B0477860491C1029FFF400AFF8BD0000C7
:1005700080000058F4440258080400580000025853
:100580000004025800080258000C025800100258DB
:100590000014025800180258001C0258002002588B
:1005A000002402580AB1018300E041837047000033
:1005B000044840680449B0FBF1F04FF47A714843B5
:1005C00070470000001000E00084D717014608487B
:1005D000006840F08070064A10600020054A5060B4
:1005E0001046006840F001001060002070470000D5
:1005F000FCED00E0001000E070B504460D4600265A
:100600008D48006800F00700A8420ED28A480068B2
:1006100020F007002843884908600846006800F079
:100620000700A84201D0012070BD207800F0020030
:10063000022807D18148006820F00F00E1680843D4
:100640007E490860207800F00100002851D07B48E6
:10065000006820F47060A168084378490860606809
:10066000022807D1754818380068C0F34040F8B92F
:100670000120D9E76068032807D17048183800685E
:10068000C0F34060A0B90120CEE76068012807D11F
:100690006A4818380068C0F3002048B90120C3E751
:1006A000664818380068C0F3800008B90120BBE72D
:1006B00062480838006820F00700616808435F4915
:1006C00008390860FFF774FF06466068022811D1F8
:1006D00008E0FFF76DFF801B41F28831884201D9A5
:1006E0000320A1E755480838006800F038001028BA
:1006F000EFD13AE06068032811D108E0FFF758FF16
:10070000801B41F28831884201D903208CE74B4895
:100710000838006800F038001828EFD125E060683C
:10072000012811D108E0FFF743FF801B41F2883117
:10073000884201D9032077E740480838006800F074
:1007400038000828EFD110E008E0FFF731FF801BE8
:1007500041F28831884201D9032065E737480838DB
:10076000006800F038000028EFD13348006800F03E
:100770000700A8420ED93048006820F0070028433F
:100780002D4908600846006800F00700A84201D023
:10079000012049E7207800F00400042807D1274809
:1007A000006820F07000216908432449086020781F
:1007B00000F00800082809D12048001D006820F03A
:1007C0007000616908431D49091D0860207800F028
:1007D0001000102809D11948001D006820F4E060BD
:1007E000A16908431549091D0860207800F0200020
:1007F000202809D111480830006820F07000E16914
:1008000008430E490831086000F01EF80B490968DA
:1008100001F470614FF4807292FAA2F2B2FA82F29D
:10082000D140074A515CC840064908600020FFF7E4
:10083000CDFE0020F8E600000020005218440258C7
:10084000C81400080000002470B5012500EE905A7D
:100850000022012100230024DFED861AB0EE610A98
:10086000DFED841AB0EE611A0020834D2D6805F08B
:10087000380535B1082D15D0102D15D0182D7CD187
:1008800014E07D4D103D2D68C5F3401545B17A4DFE
:10089000103D2D68C5F3C106784D25FA06F000E03D
:1008A0007648E5E07648E3E07648E1E0724D1835B9
:1008B0002D6805F00302704D18352D68C5F305113C
:1008C0006D4D1C352D6805F001036B4D24352D68E9
:1008D000C5F3CC0515FB03F501EE905AF8EE611A4D
:1008E000B0EE610A22B1012A4FD0022A7DD16BE01D
:1008F000614D103D2D68C5F340152DB35E4D103D83
:100900002D68C5F3C1065D4D25FA06F4B4FBF1F57B
:1009100001EE905AB8EE612ADFED5B1AC0EE212A93
:10092000554D20352D68C5F3080501EE905AF8EEB7
:10093000611A72EEA11AF7EE002A71EEA21A62EEA7
:10094000211AB0EE611A1FE04C4DB5FBF1F501EE36
:10095000905AB8EE612ADFED4C1AC0EE212A464DBE
:1009600020352D68C5F3080501EE905AF8EE611A9E
:1009700072EEA11AF7EE002A00E077E071EEA21AFB
:1009800062EE211AB0EE611A5EE03D4DB5FBF1F565
:1009900001EE905AB8EE612ADFED3B1AC0EE212A33
:1009A000354D20352D68C5F3080501EE905AF8EE57
:1009B000611A72EEA11AF7EE002A71EEA21A62EE27
:1009C000211AB0EE611A3FE02E4DB5FBF1F501EEB4
:1009D000905AB8EE612ADFED2C1AC0EE212A264D7E
:1009E00020352D68C5F3080500E00EE001EE905AB1
:1009F000F8EE611A72EEA11AF7EE002A71EEA21A51
:100A000062EE211AB0EE611A1EE01D4DB5FBF1F544
:100A100001EE905AF8EE612ADFED1B1A80EE212AD2
:100A2000154D20352D68C5F3080501EE905AF8EEF6
:100A3000611A72EE211AB7EE002A71EE821A62EE86
:100A4000A11AB0EE611A00BF00BF0B4D20352D6812
:100A5000C5F346256D1C00EE905AF8EE601A81EE43
:100A6000212AFCEEC21A11EE900A01E0044800BFF0
:100A700000BF70BD00000000104402580090D00379
:100A800000093D0040787D010000004670B5044635
:100A90000025207800F00100002870D0F748006899
:100AA00000F0380010280CD0F448006800F038003E
:100AB000182812D1F1481830006800F0030002280D
:100AC0000BD1EE4810380068C0F34040002869D0D0
:100AD0006068002866D1012070BD00BF6068B0F575
:100AE000803F08D1E5481038006840F48030E34981
:100AF000103908602EE0606868B9E0481038006876
:100B000020F48030DD49103908600846006820F480
:100B1000802008601EE06068B0F5A02F0DD1D74896
:100B20001038006840F48020D44910390860084625
:100B3000006840F4803008600CE0D048103800684D
:100B400020F48030CD49103908600846006820F450
:100B50008020086000BF606890B1FFF729FD05465E
:100B600006E0FFF725FD401B642801D90320B3E709
:100B7000C24810380068C0F340400028F1D011E0AE
:100B8000FFF716FD054606E0FFF712FD401B64283F
:100B900001D90320A0E7B94810380068C0F34040ED
:100BA0000028F1D1207800F00200022847D1B34894
:100BB000006800F0380058B1B048006800F0380014
:100BC00018283ED1AD481830006800F00300B8BBCB
:100BD000AA4810380068C0F3800018B1E06808B96E
:100BE000012079E7A5481038006820F01900E16875
:100BF0000843A24910390860FFF7DAFC054606E011
:100C0000FFF7D6FC401B022801D9032064E79B486C
:100C100010380068C0F380000028F1D097480C38E5
:100C2000006820F47C304FF47C3292FAA2F2B2FADF
:100C300082F221699140084390490C3908604AE0EA
:100C4000FFE7E06868B38D481038006820F01900AD
:100C5000E1680843894910390860FFF7A9FC054697
:100C600006E0FFF7A5FC401B022801D9032033E76B
:100C7000824810380068C0F380000028F1D07F4817
:100C80000C38006820F47C304FF47C3292FAA2F2E7
:100C9000B2FA82F221699140084378490C39086020
:100CA00019E076481038006820F0010073491039C7
:100CB0000860FFF77DFC054606E0FFF779FC401B66
:100CC000022801D9032007E76C4810380068C0F3F8
:100CD00080000028F1D1207800F01000102877D192
:100CE0006648006800F0380008280CD063480068A7
:100CF00000F03800182823D160481830006800F050
:100D0000030001281CD15D4810380068C0F30020A2
:100D100020B1E069802801D00120DDE657480C3879
:100D2000006820F0F8404FF0F84292FAA2F2B2FACE
:100D300082F2216A9140084350490C39086047E02B
:100D4000E06958B34D481038006840F080004B49C6
:100D500010390860FFF72CFC054606E0FFF728FC79
:100D6000401B022801D90320B6E644481038006829
:100D7000C0F300200028F1D040480C38006820F073
:100D8000F8404FF0F84292FAA2F2B2FA82F2216AE7
:100D90009140084339490C39086019E03748103848
:100DA000006820F08000354910390860FFF700FC2A
:100DB000054606E0FFF7FCFB401B022801D9032093
:100DC0008AE62E4810380068C0F300200028F1D1D0
:100DD000207800F00800082836D16069D0B1274893
:100DE0006430006840F00100244964310860FFF776
:100DF000DFFB054606E0FFF7DBFB401B022801D9BD
:100E0000032069E61D4864300068C0F340000028F4
:100E1000F1D019E019486430006820F0010017494A
:100E200064310860FFF7C4FB054606E0FFF7C0FB2E
:100E3000401B022801D903204EE6104864300068A8
:100E4000C0F340000028F1D1207800F020002028D5
:100E500034D1A069D8B109481038006840F48050F6
:100E6000064910390860FFF7A3FB054608E0FFF7C5
:100E70009FFB401B022803D903202DE61044025893
:100E8000AF480068C0F340300028F0D016E0AC480E
:100E9000006820F48050AA490860FFF789FB0546E6
:100EA00006E0FFF785FB401B022801D9032013E66B
:100EB000A3480068C0F340300028F2D1207800F049
:100EC000040004287DD19F48006840F480709D494B
:100ED0000860FFF76DFB054606E0FFF769FB401B66
:100EE000642801D90320F7E59648006800F4807073
:100EF0000028F2D000BFA068012808D190487030C7
:100F0000006840F001008E49703108602DE0A06853
:100F100068B98B487030006820F001008849703152
:100F200008600846006820F0040008601DE0A06822
:100F300005280DD182487030006840F004008049D7
:100F4000703108600846006840F0010008600CE05D
:100F50007B487030006820F00100794970310860EA
:100F60000846006820F00400086000BFA068A0B137
:100F7000FFF71EFB054608E0FFF71AFB401B41F296
:100F80008831884201D90320A6E56D487030006899
:100F9000C0F340000028EFD013E0FFF709FB05463F
:100FA00008E0FFF705FB401B41F28831884201D978
:100FB000032091E5624870300068C0F340000028CB
:100FC000EFD1606A00287CD05D481030006800F0E6
:100FD0003800182876D0606A022874D15848006812
:100FE00020F0807056490860FFF7E2FA054606E0F7
:100FF000FFF7DEFA401B022801D903206CE55048B8
:101000000068C0F340600028F2D100BFD4E90A10A4
:1010100041EA00104A492831096840F2F33291430D
:101020000843474928310860208E401EC0F308005D
:10103000616B491E4FF47E4202EA41210843218F31
:10104000491ED20102EA014108433C21095D491EC3
:10105000120202EA0161084339493031086000BFD9
:10106000081D00684FF6F87188434FF6F87292FA3F
:10107000A2F2B2FA82F2A16C9140084330493431B5
:1010800008602F482C30006820F00C00216C0843C9
:101090002B492C3108600846006820F00200616C82
:1010A000084327492C3108600846006840F4803026
:1010B00008600846006840F4003008600846006890
:1010C00002E03BE038E01FE040F480200860084682
:1010D000006840F0010008601948006840F0807026
:1010E00017490860FFF764FA054606E0FFF760FA63
:1010F000401B022801D90320EEE411480068C0F328
:1011000040600028F2D019E00D48006820F080709F
:101110000B490860FFF74CFA054606E0FFF748FA6E
:10112000401B022801D90320D6E405480068C0F31B
:1011300040600028F2D101E00120CDE40020CBE4A2
:101140000044025800480258704710B5FFF7FCFFF2
:1011500010BD00BFFEE7000000B587B000BF264805
:10116000006840F08000244908600846006800F0EC
:101170008000019000BF00BF00BF0846006840F03B
:10118000800008600846006800F08000019000BF01
:1011900000BF00BF0846006840F0800008600846B5
:1011A000006800F08000019000BF00BF4FF4806035
:1011B00002900120039004900220059002A90F489C
:1011C000FFF7CAF84FF40060029002A90B48FFF73E
:1011D000C3F84FF48050029002A90848FFF7BCF80A
:1011E0004FF48060054918310880400008804000B5
:1011F000088007B000BD0000E0440258001C0258FF
:1012000000BFFEE770477047704710B5FFF79DFFBE
:1012100010BD000010B59CB000242C48006820F0E0
:1012200004002A49086000BF0020009027480C30C5
:10123000006840F4404025490C31086008460068C9
:1012400000F44040009000BF00BF00BF1F480C30BA
:10125000006800F40050B0F5005FF7D10120019064
:101260000004029000200490089002200A900221BD
:101270000B9105210C91A0210D9102210E9110914D
:1012800004210F91002112910821119101A8FFF76B
:10129000FDFB04460CB100BFFEE73F201490032085
:1012A0001590002016900820179040201890199053
:1012B00000011A9040201B90042114A8FFF79CF90C
:1012C00004460CB100BFFEE71CB010BD0C4802582C
:1012D0002048006840F470001E4908601E480068FD
:1012E00040F001001C49086000201B4910310860D3
:1012F0001948006819490840174908600020164934
:1013000018310860091D0860091D0860124928315C
:101310000860091D0860091D0860091D0860091D95
:101320000860091D0860091D0860091D08600A4859
:10133000006820F4802008490860002006496031D8
:101340000860012006490860C0060249803908602B
:101350007047000088ED00E0004402587FEDF6EA97
:101360000881005100BFFEE702E008C8121F08C153
:10137000002AFAD170477047002001E001C1121F16
:10138000002AFBD170470000FFF744FFFFF7E4FE9F
:1013900094E000224FF480614948FFF703F949487F
:1013A000FEF7B0FF012291024548FFF7FBF84548E0
:1013B000FEF7A8FF00224FF400614148FFF7F2F862
:1013C0004048FEF79FFF0122D1023D48FFF7EAF8AF
:1013D00000224FF480513A48FFF7E4F83948FEF70D
:1013E00091FF012211033648FFF7DCF84FF48060CB
:1013F00033491A3108804000891E08804000088067
:101400003048FEF77FFF4FF480602D491831088087
:101410004000891C08804000891E08802948FEF78A
:1014200071FF4FF480602649183108804000088021
:101430004000891C08802348FEF764FF4FF4806059
:101440001F491A310880400008804000891E08802A
:101450001C48FEF757FF4FF4806019491A31088085
:101460004000891E08804000891C08801548FEF74E
:1014700049FF4FF480601249183108804000891CF0
:101480000880400008800F48FEF73CFF4FF4806062
:101490000B491A3108804000088040000880094844
:1014A000FEF730FF4FF48060054918310880400096
:1014B0000880400008800348FEF724FF69E7000029
:1014C000001C025840420F0000000000010203040B
:1014D0000102030406070809F814000800000024AC
:1014E0000800000068130008001500080800002428
:1014F00000040000781300080090D0030090D0038F
:040000050800029954
:00000001FF
