:020000040800F2
:10000000B0070024690300087B1D0008CF1C00080E
:10001000791D00087D0400085F260008000000002C
:10002000000000000000000000000000AD02000819
:100030004505000800000000010300080D1F00082E
:100040008303000883030008830300088303000878
:100050008303000883030008830300088303000868
:100060008303000883030008830300088303000858
:100070008303000883030008830300088303000848
:100080008303000883030008830300088303000838
:100090008303000883030008830300088303000828
:1000A0008303000883030008830300088303000818
:1000B0008303000883030008830300088303000808
:1000C00083030008830300088303000883030008F8
:1000D00083030008830300088303000883030008E8
:1000E0008303000883030008000000008303000866
:1000F00083030008830300088303000883030008C8
:1001000083030008830300088303000883030008B7
:1001100083030008830300088303000883030008A7
:100120008303000883030008830300088303000897
:100130008303000883030008830300088303000887
:1001400000000000000000000000000000000000AF
:100150008303000883030008830300088303000867
:100160008303000883030008830300088303000857
:1001700083030008830300088303000800000000D5
:100180008303000883030008830300088303000837
:100190008303000883030008830300088303000827
:1001A0008303000883030008830300088303000817
:1001B0008303000883030008830300088303000807
:1001C00083030008830300088303000883030008F7
:1001D00083030008830300088303000883030008E7
:1001E00083030008830300088303000883030008D7
:1001F00083030008830300088303000883030008C7
:1002000083030008830300088303000883030008B6
:1002100083030008830300088303000883030008A6
:100220008303000883030008830300080000000024
:100230008303000883030008000000008303000814
:100240008303000883030008830300088303000876
:100250008303000883030008830300088303000866
:100260008303000883030008830300088303000856
:1002700083030008830300088303000800000000D4
:100280008303000800000000830300080000000052
:100290000000000083030008DFF80CD000F0DCF859
:1002A0000048004791280008B00700242B4B19682C
:1002B0000868B0E8F04F80F30988BFF36F8F4FF004
:1002C000000080F3118870470000000006480068B5
:1002D000006880F3088862B661B6BFF34F8FBFF342
:1002E0006F8F00DF00BF00BF08ED00E0DFF80C00FB
:1002F000016841F470010160704700BF88ED00E0C3
:10030000EFF30980BFF36F8F144B1A681EF0100FC4
:1003100008BF20ED108A20E9F04F106008B44FF0BC
:10032000500072B680F31188BFF34F8FBFF36F8F09
:1003300062B602F0E3FA4FF0000080F3118808BCC7
:1003400019680868B0E8F04F1EF0100F08BFB0EC55
:10035000108A80F30988BFF36F8F7047080000246C
:10036000EFF30580704700000648804706480047C5
:10037000FEE7FEE7FEE7FEE7FEE7FEE7FEE7FEE755
:10038000FEE7FEE7AD1F0008990200082DE9F05FC7
:100390000546002092469B468846064681464024F4
:1003A0001BE0284641464746224600F045F85346A2
:1003B0005A46C01A914110D311461846224600F001
:1003C0002CF82D1A67EB01084F4622460120002128
:1003D00000F023F817EB00094E41201EA4F10104A0
:1003E000DFDC484631462A464346BDE8F09F30B53B
:1003F0000B46014600202022012409E021FA02F5E3
:100400009D4205D303FA02F5491B04FA02F528447C
:10041000151EA2F10102F1DC30BD202A04DB203AD6
:1004200000FA02F1002070479140C2F1200320FA47
:1004300003F3194390407047202A04DB203A21FA45
:1004400002F00021704721FA02F3D040C2F12002ED
:100450009140084319467047064C074D06E0E06896
:1004600040F0010394E8070098471034AC42F6D3FB
:10047000FFF716FFE42A0008042B0008FEE700003F
:100480002C4870B5B6B0016841F001010160016807
:1004900001F001013491016841F00101016000683F
:1004A00000251E95012400F0010000943490684658
:1004B00000F0BEFA1F481030016841F010010160E1
:1004C00000682FA91C4E00F01000349060022F909D
:1004D0000220CDE930040724CDE93204304600F093
:1004E00033F84FF4806033942FA92F90304600F0FA
:1004F0002BF8134C114820604FF4E130C4E901059A
:100500000C20E560C4E90450A5612046E561256240
:10051000656301F04DFB00220621252000F03CF927
:10052000252000F02BF92068016841F020010160CE
:1005300036B070BDE044025800000258001001407F
:1005400048000024704700002DE9F84F6C4C002251
:100550004FF0B04A4FF0010B4FF0030E4FF00F0970
:100560000B680BFA02F73B40BB4270D14D68022D7D
:1005700001D0122D12D1D50800EB850CDCF82060DB
:100580005507ED0E09FA05F826EA0806D1F810809D
:1005900008FA05F848EA0608CCF82080D0F8008070
:1005A000560091F804C00EFA06F50CF0030C28EA88
:1005B00005080CFA06FC4CEA080CC0F800C0D1F89B
:1005C00004C0BCF1010F08D0BCF1020F05D0BCF192
:1005D000110F02D0BCF1120F16D1D0F808C0D1F81B
:1005E0000C802CEA050C08FA06F848EA0C08C0F85A
:1005F0000880D0F804C02CEA070C0F79C7F3001765
:10060000974047EA0C074760C768AF438D68B5401D
:100610003D43C5604D68ED006BD53A4D2E6846F000
:1006200002062E602D6822F0030606F1B04605F0A2
:1006300002050095D6F808C495072F0F09FA07F5AB
:100640002CEA050C304DA84202D100252EE050E0E6
:100650002E4DA84201D1012528E02D4DA84201D1FF
:10066000022523E02B4DA84201D103251EE02A4D8F
:10067000A84201D1042519E0284DA84201D1052541
:1006800014E0274DA84201D106250FE0254DA842D0
:1006900001D107250AE0244DA84201D1082505E033
:1006A000224DA84201D1092500E00A25BD4045EAB6
:1006B0000C05C6F8085425684E689D43F60300D51E
:1006C0001D43256065684E689D43B60300D51D43F4
:1006D0006560DAF8005056464F689D43FF0200D52A
:1006E0001D43356075684F689D43BF0200D51D43AB
:1006F0007560521C102AFFF433AFBDE8F88F00007C
:1007000080000058F44402580000025800040258C7
:1007100000080258000C0258001002580014025839
:1007200000180258001C02580020025800240258E9
:100730000AB1018370474183704700000448406854
:100740000449B0FBF1F04FF47A7148437047000060
:10075000001000E00084D7170648016841F080715E
:100760000160054800214160016841F0010101601C
:1007700000207047FCED00E0001000E0002809DBDD
:10078000012100F01F0291404009800000F1E020AB
:10079000C0F80011704700000E4BF0B41B68C3F3A3
:1007A0000223C3F10704042C00D904241D1D072DC6
:1007B00001D2002300E0DB1E012606FA04F56D1EBF
:1007C0000D409D409E40761E164045EA0601F0BC55
:1007D00001F056BF0CED00E010B500F021FF084914
:1007E00009684FF4807292FAA2F201F47061B2FAD1
:1007F00082F2D140034A515CC8400349086010BDF1
:1008000018440258BC2A00080000002410B500F06B
:10081000C1FE07490968102292FAA2F201F07001A4
:10082000B2FA82F2D140034A515CC84010BD0000C8
:1008300020440258BC2A0008364930B50A680968C5
:1008400012F00302344BC1F305311B68334C03F043
:1008500010032468DFED320AB7EE001AC4F3CC04AB
:1008600014FB03F300EE103A2E4BB8EE400A07D00B
:100870002D4C012A01D0022A4AD0B4FBF1F10BE041
:10088000244C283C22689506284A03D52468C4F3E2
:10089000C104E240B2FBF1F101EE901A1968B8EE22
:1008A000612AC1F3080101EE901A1968F8EE611A85
:1008B00040EE201A31EE810A22EE000AC1F34621F1
:1008C000491C00EE901AF8EE600A80EE201AFCEE49
:1008D000C10AC0ED000A1968C1F30641491C00EEC7
:1008E000901AF8EE600A80EE201AFCEEC10AC0ED04
:1008F000010A1968C1F30661491C00EE901AF8EE6E
:10090000600A80EE201ABCEEC10A80ED020A30BDFA
:10091000074ABFE7284402582C4402583C44025876
:10092000000000393844025800093D000090D0030F
:1009300040787D01364930B50A68096812F0030233
:10094000344BC1F305511B68334C03F480732468A6
:10095000DFED320AB7EE001AC4F3CC0414FB03F344
:1009600000EE103A2E4BB8EE400A07D02D4C012A6B
:1009700001D0022A4AD0B4FBF1F10BE0244C283C10
:1009800022689506284A03D52468C4F3C104E240CE
:10099000B2FBF1F101EE901A1968B8EE612AC1F3C9
:1009A000080101EE901A1968F8EE611A40EE201A5B
:1009B00031EE810A22EE000AC1F34621491C00EE05
:1009C000901AF8EE600A80EE201AFCEEC10AC0ED23
:1009D000000A1968C1F30641491C00EE901AF8EEAE
:1009E000600A80EE201AFCEEC10AC0ED010A196807
:1009F000C1F30661491C00EE901AF8EE600A80EE21
:100A0000201ABCEEC10A80ED020A30BD074ABFE7DA
:100A1000284402582C44025844440258000000392B
:100A20004044025800093D000090D00340787D0109
:100A30002DE9F84F044600680025FC4FDFF8F083ED
:100A40002E46010104F12400009023D5606E50B1C0
:100A5000B0F5801F0CD0B0F5001F11D0B0F5401FCD
:100A600023D0012515E0386840F4003038601CE0E0
:100A7000386840F400103860201D01F07FF906E06E
:100A8000386840F080703860009801F0DBF90500AC
:100A90000BD02E462088C00529D5606D052824D2AC
:100AA000DFE800F00C1119212100D8F80010626E67
:100AB00021F440111143C8F80010EBE7386840F406
:100AC000003038600FE0386840F400203860201DA6
:100AD00001F054F906E0386840F48000386000986E
:100AE00001F0B0F905466DB100E001252E432088E4
:100AF00080052ED5A06D802821D00CDC90B1402837
:100B00000ED114E0D8F80010626D21F007011143F6
:100B1000C8F80010EBE7C02819D0B0F5807F16D0D8
:100B2000012515E0386840F4003038600FE038687F
:100B300040F400203860201D01F020F906E03868FC
:100B400040F480003860009801F07CF9054685B1DA
:100B50002E432088DFF8DC92400532D5D4F8A4007B
:100B6000B0F5800F23D00DDCA0B1B0F5001F0FD180
:100B700015E0D8F80010A26D21F4E0711143C8F817
:100B80000010E6E7B0F5C00F19D0B0F5000F16D091
:100B9000012515E0386840F4003038600FE038680F
:100BA00040F400203860201D01F0E8F806E03868C5
:100BB00040F480003860009801F044F9054675B1B2
:100BC0002E432088000533D5D4F8A800B0F1007F6B
:100BD00024D00EDCA8B1B0F1807F10D116E0D9F896
:100BE0000010D4F8A42021F460011143C9F80010CA
:100BF000E7E7B0F1407F19D0B0F1806F16D0012542
:100C000015E0386840F4003038600FE0386840F490
:100C100000203860201D01F0B1F806E0386840F48B
:100C200080003860009801F00DF905466DB12E4343
:100C30002068800122D5A06CF0B110280FD02028A8
:100C400012D0302818D0012517E0D9F80010D4F8B8
:100C5000A82021F0E0611143C9F80010E8E73868E6
:100C600040F40030386007E0386840F40010386025
:100C7000201D01F083F805466DB12E432088C00485
:100C800031D5E06DB0F5005F23D00DDCA0B1B0F53B
:100C9000805F0FD115E06648001F0168A26C21F04B
:100CA000300111430160E9E7B0F5405F19D0B0F5BC
:100CB000804F16D0012515E0386840F400303860C8
:100CC0000FE0386840F400203860201D01F056F82D
:100CD00006E0386840F480003860009801F0B2F80F
:100CE000054685B12E43208880042FD5206EB0F5AF
:100CF000403F29D010DC38B3B0F5803F14D0B0F5B8
:100D0000003F0FD118E0D8F80010E26D21F4E04167
:100D10001143C8F80010E6E7B0F5802F14D0B0F505
:100D2000A02F11D0012510E0386840F48010386001
:100D3000201D01F023F806E0386840F40000386018
:100D4000009801F07FF805468DB12E4320884004BD
:100D500030D5D4F8AC00B0F1405F29D010DC38B306
:100D6000B0F1805F14D0B0F1005F0FD118E0D8F877
:100D70000010226E21F4E0211143C8F80010E5E7CD
:100D8000B0F1804F14D0B0F1A04F11D0012510E088
:100D9000386840F480103860201D00F0EFFF06E056
:100DA000386840F400003860009801F04BF80546C0
:100DB0006DB12E432088000422D5E06EF0B1B0F171
:100DC000805F0ED0B0F1005F10D0012517E0D9F898
:100DD0000010D4F8AC2021F0E0411143C9F8001014
:100DE000E8E7386840F40030386007E0386840F4DD
:100DF00080103860201D00F0C1FF05466DB12E4304
:100E00002068C00127D5606C18B3012814D00228CF
:100E100017D003281DD001251CE0D8F80010E26E81
:100E200021F040511143C8F80010E9E72C44025862
:100E30005044025858440258386840F40030386032
:100E400007E0386840F400103860201D00F096FF7D
:100E5000054675B12E432068DFF8E8B340024FD550
:100E6000F948016841F480710160FFF767FC824630
:100E70000EE0F4483C300168626C21F0030111433C
:100E80000160E8E7FFF75AFCA0EB0A0064282ED8BF
:100E9000ED480068C005F5D555BBEA4860300068EC
:100EA000B4F8B01000F4407001F4407188420DD0E5
:100EB000E44860300168026821F4407142F48032F5
:100EC0000260026822F4803202600160D4F8B0004F
:100ED000B0F5807F23D1FFF731FC824609E0FFF7B0
:100EE0002DFCA0EB0A0141F28830814201D9032593
:100EF00005E0D448603000688007F0D57DB12E430E
:100F00002078DFF848A3C00743D0A06F18283ED050
:100F100026DC98B3082829D0102825D12FE0D4F852
:100F2000B000C0F3012103290FD0DBF8001021F439
:100F30007C51CBF80010C5481C300168B4F8B020D3
:100F4000C2F30B0211430160DAE7DBF80020C04B6B
:100F500022F47C5203EA10100243CBF80020EAE7A7
:100F6000202814D0282812D0012511E0386840F438
:100F700080103860201D00F001FF07E007E03868AE
:100F800040F400003860009800F05CFF05465DB159
:100F90002E432078800724D5606F06281FD2DFE813
:100FA00000F01C0C141C1C1CDAF80010A26F21F0BD
:100FB00038011143CAF80010EBE7386840F480109C
:100FC0003860201D00F0DAFE06E0386840F40000CA
:100FD0003860009800F036FF054675B100E0012545
:100FE0002E432078400725D5D4F8900006281FD23C
:100FF000DFE800F01C0C141C1C1CDAF80010626FF7
:1010000021F007011143CAF80010EAE7386840F4FC
:1010100080103860201D00F0B1FE06E0386840F412
:1010200000003860009800F00DFF05469DB100E01B
:1010300001252E432078800631D5D4F88C00B0F1FC
:10104000405F2AD011DC40B3B0F1805F15D0B0F121
:10105000005F10D119E0D9F80010D4F8902021F0E9
:1010600007011143C9F80010E4E7B0F1804F14D034
:10107000B0F1A04F11D0012510E0386840F40020F5
:101080003860201D00F07AFE06E0386840F080707D
:101090003860009800F0D6FE05468DB12E432078CA
:1010A000400631D5D4F89800B0F5406F2AD011DC55
:1010B00040B3B0F5806F15D0B0F5006F10D119E0D6
:1010C000DAF80010D4F88C2021F0E0411143CAF87E
:1010D0000010E4E7B0F5805F14D0B0F5A05F11D048
:1010E000012510E0386840F400203860201D00F031
:1010F00045FE06E0386840F080703860009800F0E7
:10110000A1FE05468DB12E432078000631D5D4F8D6
:101110009C00B0F5C04F2AD011DC40B3B0F5005FA1
:1011200015D0B0F5804F10D119E0D9F80010D4F8DF
:10113000982021F4E0511143C9F80010E4E7B0F51C
:10114000004F14D0B0F5204F11D0012510E03868C1
:1011500040F400203860201D00F010FE06E03868E2
:1011600040F080703860009800F06CFE054665B372
:101170002E43207800070BD5D4F88000B0F5805FAF
:101180002DD0DAF8002022F440520243CAF80020A1
:101190002078C0060BD5D4F89400B0F5807F26D017
:1011A000D9F8002022F440720243C9F800202068D8
:1011B000000336D5D4F8A00008B3B0F5803F26D0A0
:1011C000B0F5003F2BD001252AE0D9F80010D4F863
:1011D0009C2021F460411143C9F80010C9E7009830
:1011E00000F030FE386840F080703860D0E700983A
:1011F00000F028FE386840F080703860D7E7386823
:1012000040F400203860201D00F0B8FD06E038688A
:1012100040F080703860009800F014FE0546CDB1B3
:101220002E43206840032ED5D4F88400B0F5801FEB
:101230001AD0B0F5001F1CD0B0F5401F21D00125F9
:1012400020E000001044025800480258544402585C
:10125000CFFFFF00D9F80010D4F8A02021F44031CE
:101260001143C9F80010DCE7386840F400303860FA
:1012700007E0386840F400003860009800F0E2FDB4
:10128000054655B12E432068C0031FD5E06C70B1F0
:10129000B0F5803F10D0012517E0DAF80010D4F83F
:1012A000842021F440111143CAF80010EBE738689C
:1012B00040F40030386007E0386840F400103860CF
:1012C000201D00F05BFD0546DDB12E432068800047
:1012D00007D5386840F080703860009800F0B2FDA3
:1012E0000643206880031AD5E06FB0B1B0F5807F67
:1012F0000FD0B0F5007F10D0B0F5407F0DD00125A4
:101300000CE02D480168E26C21F48031114301604A
:10131000DCE7386840F400303860EDB32E432068D5
:10132000C00207D5D8F80010226F21F00041114308
:10133000C8F800102068C00008D5DBF80010D4F809
:10134000B42021F480411143CBF8001020688002C2
:1013500007D5D8F80010A26E21F080711143C8F8AB
:101360000010206840000CD5DBF8001021F400418B
:10137000CBF80010DBF80010D4F8B8201143CBF8FC
:1013800000102068002806DA0B480168226D21F061
:1013900040511143016000E003E05EB10120BDE86F
:1013A000F88FDAF80010E26F21F440711143CAF8A7
:1013B0000010B4E70020F2E74C4402582DE9F04752
:1013C000DFF8BC9104460E46D9F8000000F0070093
:1013D000B0420CD2D9F8001021F007013143C9F80E
:1013E0000010D9F8000000F00700B0427ED120784C
:1013F000DFF89081800707D5D8F80010E26821F067
:101400000F011143C8F800102078C00762D0D8F847
:101410000010A26821F470611143C8F80010594906
:101420006068183902281CD003281DD009680128DB
:101430001DD04907002960DA524F083F396821F072
:10144000070101433960FFF779F90546606841F209
:101450008831022813D003281ED001288A4627D0BD
:1014600034E009688903E5E709688901E2E7C9050D
:10147000E0E7FFF763F9411B514501D923E08A46B4
:101480003868C0F3C2000228F3D123E0FFF756F911
:10149000411B514501D916E08A463868C0F3C200A5
:1014A0000328F3D116E0FFF749F9411B51450AD84B
:1014B0003868C0F3C2000128F5D10BE0FFF73EF910
:1014C000411B514502D90320BDE8F087386810F070
:1014D000380FF3D1D9F80010484601F00701B142A6
:1014E0000DD9016821F00701314300E005E00160FA
:1014F000006800F00700B04201D00120E4E7207846
:10150000400707D5D8F80010226921F07001114377
:10151000C8F80010207801071B4805D501686269EA
:1015200021F07001114301602178C90605D50168D9
:10153000A26921F4E061114301602078800607D59B
:101540001149091D0868E26920F070001043086025
:1015500000F066F8D8F800104FF4807292FAA2F208
:1015600001F47061B2FA82F2D140084A515CC8407D
:10157000074908600020FFF7EFF80020A4E700000B
:1015800000200052184402581C440258BC2A00088B
:101590000000002410B5FFF71FF90849096801226F
:1015A00092FAA2F201F00F01B2FA82F2D140044A9B
:1015B000515CC8400349086010BD0000184402583F
:1015C000BC2A00080400002410B5FFF7E3FF074918
:1015D0000968102292FAA2F201F07001B2FA82F2C6
:1015E000D140034A515CC84010BD00001C44025861
:1015F000BC2A000810B5FFF7CDFF074909684FF472
:10160000807292FAA2F201F4E061B2FA82F2D14061
:10161000024A515CC84010BD1C440258BC2A000854
:101620003548F0B50068364D10F03801334809D020
:101630000411082904D0334E10290BD018290BD0DF
:101640002046F0BD29688906FBD52968C1F3C10190
:10165000C840F0BD3046F0BD274918310A68096816
:1016600012F00302284BC1F305111B68274F03F04A
:1016700001033F68DFED260AB7EE001AC7F3CC0777
:1016800017FB03F300EE103A224BB8EE400A06D0E7
:10169000012A01D0022A2BD0B4FBF1F008E02A681D
:1016A000920603D52A68C2F3C102D040B0FBF1F024
:1016B00001EE900A1868B8EE612AC0F3080001EE46
:1016C000900A1868F8EE611A40EE201A31EE810A8D
:1016D00022EE000AC0F34620401C00EE900AF8EE0D
:1016E000600A80EE201ABCEEC10A10EE100AF0BDAE
:1016F000B6FBF1F0DCE70000104402580090D00384
:101700000044025840787D012C4402583444025869
:1017100000000039304402582DE9F04704460078B3
:10172000DFF8F883DFF8F893FE4DC0074CD0D8F807
:1017300000104046C1F3C20102291AD00068C0F36C
:10174000C200032805D1D9F8000000F003000228E8
:101750000FD06068B0F5803F12D010B1B0F5A02F67
:1017600018D0286820F480302860286820F4802071
:1017700009E02868800327D5606800287BD023E033
:10178000286840F480302860606888B1FEF7D6FF92
:10179000064609E0286840F480202860F0E7FEF75C
:1017A000CDFF801B642867D828688003F7D50BE03D
:1017B000FEF7C4FF064604E0FEF7C0FF801B642866
:1017C000F1D828688003F7D42078D74F800767D5F1
:1017D000D8F8001040464FF47C3A11F0380F13D07F
:1017E0000068C0F3C200032803D1D9F800008007C5
:1017F0000AD0E068F0B3296821F01901014329609B
:10180000FEF79CFF064628E02868400702D5E068FE
:101810000028B3D02868E16820F019000843286048
:10182000FEF78CFF064604E0FEF788FF801B0228C7
:10183000B9D828684007F7D538689AFAAAF221691A
:10184000B2FA82F220F47C3091400843386027E0FD
:10185000FEF774FF801B0228A5D828684007F7D53B
:101860003868216920F47C329AFAAAF0B0FA80F044
:10187000814002E004E0B9E002E10A433A600FE08F
:10188000286820F001002860FEF758FF064604E0B3
:10189000FEF754FF801B022885D828684007F7D43C
:1018A0002078C00648D5D8F8001040464FF0F84AD6
:1018B000C1F3C201012915D00068C0F3C20003289A
:1018C00005D1D9F8000000F0030001280AD0E06932
:1018D0000028286821D040F080002860FEF72EFF05
:1018E00006460BE02868C0050BD5E06980287DD14D
:1018F00007E0FEF723FF801B022899D82868C0055F
:10190000F7D538689AFAAAF2216AB2FA82F220F080
:10191000F8409140084338600EE020F080002860D5
:10192000FEF70CFF064604E0FEF708FF801B0228C6
:1019300092D82868C005F7D42078000724D5784FBE
:1019400060694C37002838680FD040F001003860DB
:10195000FEF7F4FE064604E0FEF7F0FE801B0228C8
:101960009AD838688007F7D50EE020F0010038607B
:10197000FEF7E4FE064604E0FEF7E0FE801B0228C8
:101980007ED838688007F7D42078800622D5A069F1
:10199000002828680FD040F480502860FEF7CEFE63
:1019A000064604E0FEF7CAFE801B022868D82868B5
:1019B0008004F7D50EE020F480502860FEF7BEFECC
:1019C000064604E0FEF7BAFE801B022858D82868B5
:1019D0008004F7D42078400747D5544F386840F446
:1019E00080703860FEF7AAFE064605E0C4E0FEF708
:1019F000A5FE801B642843D83868C005F7D5484F3A
:101A0000A068483701280AD008B1052813D03868E3
:101A100020F001003860386820F0040002E03868E7
:101A200040F001003860A06841F2883A88B1FEF7C2
:101A300085FE064609E0386840F004003860EEE7AD
:101A4000FEF77CFE811B51451AD838688007F7D510
:101A50000BE0FEF773FE064604E0FEF76FFE811B07
:101A600051450DD838688007F7D4606AF0B3D8F8CC
:101A70000010C1F3C20103297ED00228286800E0CB
:101A80007BE020F08070286003D0FEF757FE04460C
:101A900087E0FEF753FE064604E0FEF74FFE801B8C
:101AA00002287BD828688001F7D4D9F8001040F2CA
:101AB000F3329143E26A41EA0211A26A1143C9F882
:101AC000001094F834004FF4FE024002A0F50070BC
:101AD00081B2208E401EC0F308000143208F401EBB
:101AE00002EA0040014394F83C0000E05CE0401E44
:101AF000120202EA00600143094808300160031D38
:101B000019684FF6F872A06C914392FAA2F2B2FAF9
:101B100082F2904001431960014809E010440258E4
:101B2000284402580044025804440258004802580D
:101B3000001D0168226C21F00C0111430160016855
:101B4000626C21F0020111430160016841F48031AF
:101B50000160016841F400310160016841F48021B5
:101B60000160016841F001010160286840F0807067
:101B70002860FEF7E3FD01E018E00FE0044604E012
:101B8000FEF7DCFD001B022808D828688001F7D585
:101B90000AE0FEF7D3FD001B022802D90320BDE8AE
:101BA000F08728688001F4D40020F8E70120F6E7E8
:101BB00010B5040003D094F8790010B107E00120BB
:101BC00010BD002084F87800204600F026F824207C
:101BD00084F879002068016821F001010160204645
:101BE00000F0B8FA0128EBD0606B10B1204600F08D
:101BF0001FFA2068416821F49041416020688168A3
:101C000021F02A0181602068016841F00101016032
:101C10002046BDE8104000F06FBA70472DE9F84348
:101C2000044690F879001E4617460D4620284CD1F0
:101C3000C5B1BFB194F87800012846D0012084F8DE
:101C400078004FF00008C4F87C80212084F87900E7
:101C50006034FEF773FD278081466780603C4FF457
:101C6000805718E00120BDE8F883B4F86200401EF8
:101C7000A4F8620000224B4680212046009600F026
:101C8000BDFCA0B9A068B84201D1206988B115F89F
:101C9000010B21680885B4F862000028E5D1002214
:101CA0004B4640212046009600F0A8FC30B10320AE
:101CB000D9E735F8020BC0F30800EAE7202084F8E2
:101CC0007900002084F87880CDE70220CBE7FEE79A
:101CD0002648F0B5016887B041F0800101600168D5
:101CE00001F080010591016841F080010160016807
:101CF00001F080010591016841F0800101600168F7
:101D000001F080010591016841F00801016000685F
:101D10004FF48065164F694600F0080005900120D9
:101D20000290CDE90050022003903846FEF70CFCEB
:101D30006C00694638460094FEF706FC660069466A
:101D400038460096FEF700FC0A4F69460094384674
:101D5000FEF7FAFB06481830058004800680002252
:101D600021463846FEF7E4FC07B0F0BDE0440258D7
:101D7000001C0258000C0258FEE770472DE9F041A4
:101D80002F4F04464FF000083868C043800709D041
:101D90002B4D283D286820F080602860FEF7CEFC9F
:101DA000064607E00120BDE8F081FEF7C7FC801B76
:101DB00002283ED828680001F7D43868216820F44A
:101DC0007C3040EA01303860207A4FF4FE02A1886E
:101DD0004002491EA0F5007080B2C1F3080108431B
:101DE000A189491E02EA01410843217C1202491ED1
:101DF00002EA016108431249103108601048001DD1
:101E00000168626921F0C001114301600168A269A3
:101E100021F0200111430160286840F080602860B3
:101E2000FEF78CFC044606E0FEF788FC001B022847
:101E300001D90320B7E728680001F5D54046B2E78D
:101E4000284402582DE9F0412F4F04464FF0000876
:101E50003868C043800709D02B4D283D286820F002
:101E600080502860FEF76AFC064607E00120BDE8C6
:101E7000F081FEF763FC801B02283ED828688000B2
:101E8000F7D43868218820F07C7040EA015038602F
:101E9000207A4FF4FE02A1884002491EA0F500708E
:101EA00080B2C1F308010843A189491E02EA014139
:101EB0000843217C1202491E02EA016108431249CB
:101EC000183108601048001D0168626921F4406102
:101ED000114301600168A26921F40071114301609E
:101EE000286840F080502860FEF728FC044606E091
:101EF000FEF724FC001B022801D90320B7E728685D
:101F00008000F5D54046B2E72844025810B500F0ED
:101F10004FFD012803D0BDE8104000F031BD10BDD9
:101F2000214830B59DB0016821F0040101601E48D0
:101F300000240C30016841F440410160016801F463
:101F400040411B9101688904FCD5012000900521C6
:101F500003940004019002200794CDE90A01A02116
:101F60000990CDE90C1008250F9004200E90CDE9C2
:101F700010546846FFF7D0FB00B1FEE714A93F20DC
:101F80001390032081E83100402017901A9001013E
:101F9000CDE91801042113A8FFF710FA002800D09A
:101FA000FEE71DB030BD00000C4802581C48016817
:101FB00041F4700101601B49086840F001000860AD
:101FC000184A0020103210600A68174B1A400A6045
:101FD000144A18321060121D1060121D1060114A50
:101FE00028321060121D1060121D1060121D10604A
:101FF000121D1060121D1060121D1060121D106065
:102000000A6822F480220A600649603108600120D3
:102010000649C1F80801C0060149803908607047C7
:1020200088ED00E0004402587FEDF6EA00800051A0
:1020300090F83410C90706D001684A68836B22F40F
:1020400000321A434A6090F83410890706D50168B7
:102050004A68C36B22F480321A434A6090F8341005
:10206000490706D501684A68036C22F480221A43A6
:102070004A6090F83410090706D501684A68436C35
:1020800022F400421A434A6090F83410C90606D57B
:1020900001688A68836C22F480521A438A6090F83F
:1020A0003410890606D501688A68C36C22F4005290
:1020B0001A438A6090F83410490611D501684A68BD
:1020C000036D22F480121A434A60016DB1F5801F3E
:1020D00006D101684A68436D22F4C0021A434A607F
:1020E00090F83410090606D501684A68806D22F41C
:1020F000002202434A607047F8B500250446C567D0
:10210000FEF71CFB0746206800686FF07E4600075C
:1021100008D500223B464FF400112046009600F0FF
:102120006DFA60B92068006840070AD500223B4676
:102130004FF480012046009600F060FA08B10320B9
:10214000F8BD202084F8790084F87A00002084F813
:102150007850F8BD2DE9F04F044600688025FD4B0E
:102160000021D4F810C087B0A6680F46D4F81C80B0
:1021700046EA0C06D4F814C0A26A4CEA080C46EAF7
:102180000C0632430668DFF8D0C306EA0C06164395
:10219000066020684268E66822F44052324342609A
:1021A0002268A0699A4201D0266A3043A66AB6F135
:1021B000005F04D1D4E90B6C46EA0C063043966804
:1021C000DFF898C306EA0C06064396602068C26AE8
:1021D000666A22F00F023243C262E14E2068E14A91
:1021E000B04210D1126802F03802182A74D005DC0F
:1021F000CAB3082A7AD0102A47D179E0202A7BD0A6
:10220000282A7CD17AE0D84EB04209D1126802F077
:102210000702062A73D2DFE802F053696B6D6F7113
:10222000D24EB04209D1126802F00702062A66D2E5
:10223000DFE802F0465C5E606264CD4EB04209D1D8
:10224000126802F00702062A59D2DFE802F0394F7D
:1022500051535557C74EB0420BD1126802F00702D6
:10226000062A4CD200E00EE0DFE802F02A404244A9
:102270004648C14EB04209D1126802F03802182A0D
:1022800038D0BBDCB4E74FF0010538E0BB4EB042BC
:1022900009D1126802F00702062A30D2DFE802F004
:1022A0001026282A2C2EB64EB0420BD1126802F00E
:1022B0000702062A23D2DFE802F003191B1D1F21A3
:1022C00000251CE098421AD1A64A121D126802F09D
:1022D0000702062A13D202E00CE007E00CE0DFE878
:1022E00002F0030507090B0D022508E0042506E0AE
:1022F000402504E0082502E0102500E02025DFF855
:1023000064B2A04E9842DFF880A2ABF1540B73D1B7
:10231000102D31D006DC022D09D0042D0AD0082D55
:102320002FD111E0202D29D0402D2AD107E0FEF732
:102330006DFA13E06846FEF77FFA01980EE003A8F5
:10234000FEF7F8FA049809E0DBF800105846890611
:1023500010D50068C0F3C1012AFA01F0002811D09D
:102360006168894601EB410181420AD8B0EB093F1F
:1023700007D808E05046F3E78448F1E74FF40040FF
:10238000EEE7012733E1102D4FF000084ED006DCB8
:10239000022D0FD0042D15D0082D04D12DE0202DB5
:1023A0004AD0402D13D00127794AA0F540719142BF
:1023B00070D9E6E7FEF72AFA626A0023414636F84A
:1023C00012200DE06846FEF737FA019803E003A8F3
:1023D000FEF7B0FA04980023616A36F81120194616
:1023E000FDF7D4FF62680902030241EA1061500858
:1023F000181841EB080115E032E0DBF800105846F0
:10240000890609D500680023C0F3C1012AFA01F04A
:10241000616A36F8112015E0606A002336F8102052
:1024200050460FE00023FDF7B1FFBDE7606A0023CF
:1024300036F81020554805E0606A002336F8102071
:102440004FF400400021FDF7A1FF0902020241EA1A
:1024500010614FEA590010184A4641EB0801E1E7C4
:10246000E3694FF4004293424DD1082D23D005DC9F
:102470008DB1012D12D0042D06D112E0102D35D0D2
:10248000202D3AD0402D11D0012721F00F00C1F3AB
:10249000420108435AE0FFF797F816E0FFF7AAF861
:1024A00013E06846FEF7C8F901980EE003A8FEF7AE
:1024B00041FA049809E0DBF800105846890608D56F
:1024C0000068C0F3C1012AFA01F0616A36F8111000
:1024D00010E0606A36F81010BAFBF1F04100606855
:1024E00001EB5001B1FBF0F081B2CEE7606A36F843
:1024F00010102648B0FBF1F0F0E7606A36F81000E3
:10250000B2FBF0F0EAE7082D4AD00ADC0DB3012D4A
:1025100043D0042D7FF44DAF6846FEF78DF9019846
:1025200009E0102D52D0202D55D0402DF2D103A816
:10253000FEF700FA0498616A36F81110B0FBF1F169
:10254000606801EB5001B1FBF0F080B22168C86017
:102550004DE01FE0000C0058F369FFCFFFF4FF11BE
:10256000001001405444025800440040004800401C
:10257000004C004000500040001401400078004032
:10258000007C0040CC2A00080090D00300093D00E8
:10259000FFFC0F00FFF718F8CDE7FFF72BF8CAE7AD
:1025A000DBF80020594692060AD50968C1F3C1023A
:1025B0002AFA02F1626A36F81220B1FBF2F20FE059
:1025C000616A36F81120BAFBF2F209E0616A36F866
:1025D00011200949F1E7616A36F81110B2FBF1F2F6
:1025E000616802EB5102B2FBF1F189B2C16007B040
:1025F0003846BDE8F08F000000093D002DE9F041AC
:102600001E46174688460446069D1CE0681C1AD0E4
:1026100025B1FEF793F8801BA84214D92068016801
:1026200021F4D07101602068816821F0010181608E
:10263000202084F8790084F87A00002084F878005B
:102640000320BDE8F0812068C16938EA010004D0A8
:102650000020B842DAD00020F3E70120F9E7FEE7D6
:102660000FB4054B10B503A9044A029800F028F8EE
:1026700010BC5DF814FB0000792800084400002419
:102680000907090E002804DB00F1E02080F800149F
:10269000704700F00F0000F1E02080F8141D704733
:1026A00002E008C8121F08C1002AFAD1704770471B
:1026B000002001E001C1121F002AFBD17047000079
:1026C0002DE9FF4F8BB09A460F460546002606E0DF
:1026D00025280BD052460D9990476D1C761C287802
:1026E0000028F5D10FB03046BDE8F08F0024A04699
:1026F0000122604900E0044315F8013F203B02FA43
:1027000003F00842F7D128782E2817D115F8010FC9
:1027100044F004042A280ED06FF02F022878A0F18C
:10272000300109290AD808EB880102EB410100EBCE
:1027300001086D1CF2E757F8048B6D1C2878692896
:102740003ED006DC0028CDD063280BD0642804D10D
:1027500036E0732810D075284BD052460D9990471B
:10276000761C85E017F8040B8DF8000000208DF82A
:102770000100E946012003E057F8049B4FF0FF30C9
:1027800061074FF0000401D40AE0641C44450DDAEF
:102790008442FADB19F804100029F6D106E0641C23
:1027A0008442FCDB19F804100029F8D1264404E027
:1027B00019F8010B52460D999047641EF8D257E064
:1027C00001CF4FF00A0B002802DA40422D2102E02F
:1027D000210504D52B218DF82410012103E0E10708
:1027E00005D02021F7E70DF1200908910CE0002128
:1027F000F9E701CF4FF00A0BF9E75946FDF7F7FD6E
:1028000001F1300209F8012D0028F6D1ADEB0900E5
:1028100000F1200B600701D44FF00108D84502DD1C
:10282000A8EB0B0000E000208046002406E009A889
:102830005246005D0D999047641C761C08988442AE
:10284000F5DB04E0302052460D999047761CB8F134
:102850000001A8F10108F5DC05E019F8010B52466A
:102860000D999047761CBBF10001ABF1010BF4DC34
:102870006D1C34E70928010013B5044801224FF408
:102880007A736946FFF7CAF900981CBD4800002416
:10289000FFF746FBFFF71CFAFDF7F2FDFEE700002D
:1028A0000648416B096829B1416BC968C968496824
:1028B000816270474FF0FF31FAE700000800002402
:1028C000D0E9013201699A60D0E901235A604A686F
:1028D000824201D182684A60002202610868401E7B
:1028E0000860704742684A6093688B6093685960DB
:1028F000916008610168491C0160704770B5134D13
:10290000286B10B10120E86170BD0020E8612869E2
:102910000F4EB0FA80F0C0F11F0000EB800456F8B3
:10292000240028B90BA140F6F62211A0FFF798FE6B
:1029300006EB840000F10802416849684160914259
:1029400001D149684160C868286070BD0800002452
:10295000C80000242E2E5C2E2E5C467265655254F3
:102960004F535C7372635C7461736B732E6300000E
:102970004572726F723A25732C25640D0A000000AF
:10298000502010B572B680F31188BFF34F8FBFF39C
:102990006F8F62B600F01AF818B104494FF08050FA
:1029A0000860002080F3118810BD000004ED00E0F5
:1029B0000548416919B1006B18B10020704701202A
:1029C0007047022070470000080000242DE9F04104
:1029D0002D4F0026386B40B1B869401CB861F869CA
:1029E00000B101263046BDE8F081FD686D1CFD6038
:1029F00011D1786B006828B124A140F6D9122AA021
:102A0000FFF72EFE786BB96B7963B863386A401CA8
:102A10003862FFF745FFB86ADFF89C80854209D32A
:102A2000786B006880B1786BC068C4686068854264
:102A30000DD2B8623868C06A00EB800158F82100F6
:102A40000128CCD90126CAE74FF0FF30F1E7201D5D
:102A5000FFF736FFA06A18B104F11800FFF730FF46
:102A6000E06A01213A6981401143396100EB80013C
:102A700008EB8100211DFFF735FFE06A3968C96A5C
:102A80008842CDD30126CBE7080000242E2E5C2EF1
:102A90002E5C4672656552544F535C7372635C746E
:102AA00061736B732E6300004572726F723A257307
:102AB0002C25640D0A000000C8000024000000005E
:102AC00001020304010203040607080901000200D1
:102AD0000400060008000A000C001000200040005E
:102AE00080000001042B00080000002448000000C2
:102AF000A02600084C2B00084800002468070000AE
:102B0000B02600080090D0030090D0030000000021
:102B100000000000000000000000000000000000B5
:102B200000000000000000000000000000000000A5
:102B30000000000000000000000000000000000095
:0C2B400000000000000000000000000089
:040000050800029954
:00000001FF
