:020000040000FA
:10000000D0080020E9040000F1040000F30400001F
:10001000F5040000F7040000F904000000000000EF
:10002000000000000000000000000000FB040000D1
:10003000FD04000000000000A10400000105000014
:100040000305000005050000070500000905000084
:100050000B0500000D0500000F0500001105000054
:10006000130500001505000000000000000000005E
:100070000000000000000000000000000000000080
:100080000000000000000000000000000000000070
:100090000000000000000000000000000000000060
:1000A0000000000000000000000000000000000050
:1003C00000F002F800F03AF80AA090E8000C82442D
:1003D0008344AAF10107DA4501D100F02FF8AFF20A
:1003E000090EBAE80F0013F0010F18BFFB1A43F013
:1003F00001031847EC0300000C040000103A24BF6E
:1004000078C878C1FAD8520724BF30C830C144BF79
:1004100004680C60704700000023002400250026BB
:10042000103A28BF78C1FBD8520728BF30C148BF57
:100430000B6070471FB51FBD10B510BDDFF80CD0A5
:10044000FFF7F8FF00F0CAF800F06DF8D0080020C0
:1004500003B4FFF7F1FF03BC00F070F80648006832
:10046000006880F3088862B661B6BFF34F8FBFF3B0
:100470006F8F00DF00BF00BF08ED00E0074B196879
:100480000868B0E8F00F80F30988BFF36F8F4FF072
:10049000000080F311884EF00D0E70470C00002014
:1004A000EFF30980BFF36F8F0E4B1A6808B54FF05A
:1004B000BF0080F31188BFF34F8FBFF36F8F00F041
:1004C0004DF94FF0000080F31188BDE8084019682D
:1004D0000868B0E8F00F80F30988BFF36F8F7047AA
:1004E00000BF00000C0000200B4880470B4800476D
:1004F000FEE7FEE7FEE7FEE7FEE7FEE7FEE7FEE7D4
:10050000FEE7FEE7FEE7FEE7FEE7FEE7FEE7FEE7C3
:10051000FEE7FEE7FEE7000049050000C10300001A
:1005200070477047704710B50446AFF3008020460F
:10053000BDE81040FFF78CBF70470000014918204C
:10054000ABBEFEE7260002000348044908600448E9
:1005500004490860704700000000000008ED00E05A
:1005600040787D011000002000BF0120094908707B
:10057000642000F02DF8002006490870642000F087
:1005800027F84FF0805004490860BFF34F8FBFF346
:100590006F8FEAE70000002004ED00E000BF0120BB
:1005A00009490870642000F013F80020064908701B
:1005B000642000F00DF84FF0805004490860BFF34C
:1005C0004F8FBFF36F8FEAE70100002004ED00E0DA
:1005D00000E0401E0028FCD1704700001CB500F070
:1005E00071F81348134900238022CDE9001012A1AD
:1005F000134800F0D9F8134908600D49091D124845
:1006000000F094F81148124900238022CDE900102F
:1006100010A1124800F0C8F8114908600B49091DE3
:100620000948143000F082F800F08CF800BFFEE7B3
:1006300014020020140000205461736B310000008C
:100640006905000004000020800400204004002010
:10065000400200205461736B320000009D050000D1
:10066000080000202DE9F05F07460E4690469946A7
:10067000DDE90AA4A8F10100A16901EB800B2BF0D0
:10068000070B002507E0715D04F11C004155705D0A
:1006900000B902E06D1C102DF5D300BF00212B2006
:1006A0000155201D00F03FF824614A46394658465E
:1006B00000F01AF82060BAF1000F01D0CAF800402B
:1006C000BDE8F09F10B5002407E004EB8401044A64
:1006D00002EB810000F01AF8641C052CF5D310BD64
:1006E0006C04002000BFFEE7001F4FF08073036022
:1006F000001F21F001030360001F034B0360143847
:100700000260203870470000E506000000F1080193
:1007100041604FF0FF31816000F10801C16001616B
:1007200000210160704700210161704742684A6002
:1007300093688B60936859609160086103685B1CE3
:100740000360704710B503480349086000F01AF8C9
:1007500010BD0000140200200C00002006480068B4
:100760000649884203D106480349086002E003486D
:1007700001490860704700000C00002014020020AE
:100780004004002010B50748006840F47000054997
:1007900008600846006840F070400860FFF75EFEA1
:1007A000002010BD20ED00E02DE9FE4F07468846F1
:1007B00091469A46DDE90C6464B15EB12546AE61AE
:1007C00002A853464A464146CDE900053846FFF7A0
:1007D00049FF01E0002002900298BDE8FE8F000072
:1007E000000800000000002014000000FC030000CE
:1007F0001408000014000020BC08000018040000C9
:1008000000000000000000000000000000000000E8
:0408100040787D01AE
:04000005000003C133
:00000001FF
